{
  "contractName": "Adoption",
  "abi": [
    {
      "inputs": [],
      "stateMutability": "nonpayable",
      "type": "constructor"
    },
    {
      "inputs": [
        {
          "internalType": "uint256",
          "name": "",
          "type": "uint256"
        }
      ],
      "name": "adopters",
      "outputs": [
        {
          "internalType": "address",
          "name": "",
          "type": "address"
        }
      ],
      "stateMutability": "view",
      "type": "function",
      "constant": true
    },
    {
      "inputs": [
        {
          "internalType": "uint256",
          "name": "petId",
          "type": "uint256"
        }
      ],
      "name": "buy",
      "outputs": [
        {
          "internalType": "uint256",
          "name": "",
          "type": "uint256"
        }
      ],
      "stateMutability": "payable",
      "type": "function",
      "payable": true
    },
    {
      "inputs": [],
      "name": "getAdopters",
      "outputs": [
        {
          "internalType": "address[16]",
          "name": "",
          "type": "address[16]"
        }
      ],
      "stateMutability": "view",
      "type": "function",
      "constant": true
    },
    {
      "inputs": [],
      "name": "getContractBalance",
      "outputs": [
        {
          "internalType": "uint256",
          "name": "",
          "type": "uint256"
        }
      ],
      "stateMutability": "view",
      "type": "function",
      "constant": true
    },
    {
      "inputs": [],
      "name": "withdrawal",
      "outputs": [],
      "stateMutability": "nonpayable",
      "type": "function"
    },
    {
      "inputs": [],
      "name": "getOwnerBalance",
      "outputs": [
        {
          "internalType": "uint256",
          "name": "",
          "type": "uint256"
        }
      ],
      "stateMutability": "view",
      "type": "function",
      "constant": true
    }
  ],
  "bytecode": "0x608060405234801561001057600080fd5b5033601060006101000a81548173ffffffffffffffffffffffffffffffffffffffff021916908373ffffffffffffffffffffffffffffffffffffffff1602179055506104ac806100616000396000f3fe6080604052600436106100555760003560e01c80633de4eb171461005a57806343ae80d3146100ad578063590791f2146101125780636f9fb98a1461013d578063d4e9329214610168578063d96a094a1461017f575b600080fd5b34801561006657600080fd5b5061006f6101c1565b6040518082601060200280838360005b8381101561009a57808201518184015260208101905061007f565b5050505090500191505060405180910390f35b3480156100b957600080fd5b506100e6600480360360208110156100d057600080fd5b8101908080359060200190929190505050610242565b604051808273ffffffffffffffffffffffffffffffffffffffff16815260200191505060405180910390f35b34801561011e57600080fd5b50610127610278565b6040518082815260200191505060405180910390f35b34801561014957600080fd5b506101526102b9565b6040518082815260200191505060405180910390f35b34801561017457600080fd5b5061017d6102c1565b005b6101ab6004803603602081101561019557600080fd5b8101908080359060200190929190505050610386565b6040518082815260200191505060405180910390f35b6101c9610453565b6000601080602002604051908101604052809291908260108015610238576020028201915b8160009054906101000a900473ffffffffffffffffffffffffffffffffffffffff1673ffffffffffffffffffffffffffffffffffffffff16815260200190600101908083116101ee575b5050505050905090565b6000816010811061025257600080fd5b016000915054906101000a900473ffffffffffffffffffffffffffffffffffffffff1681565b6000601060009054906101000a900473ffffffffffffffffffffffffffffffffffffffff1673ffffffffffffffffffffffffffffffffffffffff1631905090565b600047905090565b601060009054906101000a900473ffffffffffffffffffffffffffffffffffffffff1673ffffffffffffffffffffffffffffffffffffffff163373ffffffffffffffffffffffffffffffffffffffff161461031b57600080fd5b601060009054906101000a900473ffffffffffffffffffffffffffffffffffffffff1673ffffffffffffffffffffffffffffffffffffffff166108fc479081150290604051600060405180830381858888f19350505050158015610383573d6000803e3d6000fd5b50565b6000601060009054906101000a900473ffffffffffffffffffffffffffffffffffffffff1673ffffffffffffffffffffffffffffffffffffffff163373ffffffffffffffffffffffffffffffffffffffff1614156103e357600080fd5b600082101580156103f55750600f8211155b6103fe57600080fd5b336000836010811061040c57fe5b0160006101000a81548173ffffffffffffffffffffffffffffffffffffffff021916908373ffffffffffffffffffffffffffffffffffffffff160217905550819050919050565b60405180610200016040528060109060208202803683378082019150509050509056fea2646970667358221220f31e42bb792a6455c4ef3e8114386466961db4f075f1fcb9e3ab778a952bc9f664736f6c63430007050033",
  "immutableReferences": {},
  "source": "//SPDX-License-Identifier: UNLICENSED\r\npragma solidity ^0.7.5;\r\n\r\ncontract Adoption {\r\n    address[16] public adopters;\r\n    address payable private owner;\r\n    \r\n    constructor(){\r\n        owner = msg.sender;\r\n    }\r\n    \r\n    modifier onlyOwner(){\r\n        require(msg.sender==owner);\r\n        _;\r\n    }\r\n\r\n    modifier onlyBuyer(){\r\n        require(msg.sender!=owner);\r\n        _;\r\n    }\r\n\r\n    function buy(uint256 petId) public payable onlyBuyer returns (uint256) {  \r\n        require(petId >= 0 && petId <= 15);\r\n        adopters[petId] = msg.sender;\r\n        return petId;\r\n    }\r\n\r\n    function getAdopters() public view returns (address[16] memory) {\r\n        return adopters;\r\n    }\r\n    \r\n    function getContractBalance() public view returns (uint){\r\n        return address(this).balance;\r\n    }\r\n    \r\n    function withdrawal()public onlyOwner {\r\n        owner.transfer(address(this).balance);\r\n    }\r\n    \r\n    function getOwnerBalance() public view returns (uint){\r\n        return owner.balance;\r\n    }\r\n}\r\n",
  "sourcePath": "C:/Users/herry/Desktop/SP/BC Beginner/artGallery/contracts/Adoption.sol",
  "compiler": {
    "name": "solc",
    "version": "0.7.5+commit.eb77ed08.Emscripten.clang"
  },
  "schemaVersion": "3.3.2",
  "updatedAt": "2021-06-21T12:51:33.776Z",
  "networkType": "ethereum",
  "devdoc": {
    "kind": "dev",
    "methods": {},
    "version": 1
  },
  "userdoc": {
    "kind": "user",
    "methods": {},
    "version": 1
  }
}